:1000000004308A00C72C00000A108A100A118207E7
:1000100028340C34013406340C2AE536F032F23040
:10002000F43AF2302005A519AE18E621000032306E
:1000300084008313000803192A280630F800F7010A
:10004000F70B2028F80B1F287B30F700F70B26282A
:10005000800B1D28080039182F2886113028861596
:10006000831686118312B918372806123828061607
:1000700083160612831239193F28861240288616E5
:10008000831686128312B9194728061348280617C3
:100090008316061300000611831206150330F700BD
:1000A000F70B502883160611831206110800BA01B7
:1000B0008316061183120615000083168615831217
:1000C0003A1086193A14831606168312BA10061AC5
:1000D000BA148316861683123A11861A3A158316B5
:1000E00006178312BA11061BBA158316061183125E
:1000F00006113A08F800080083160610831206104D
:100100008316861083128614000057207808B900E1
:1001100057207808B800390EF700F030F705770857
:100120003804F8007808B800B81B8028B60803190E
:100130009E288316061083120614A2288316061022
:1001400083120610000083168610831286100000AA
:100150008316061183120611370EB8000F30B8054A
:100160003808B9002B2037080F39B800B9002B2008
:100170000800831606108312061083168610831259
:10018000861083160611831206110F30B200172055
:10019000A4012408023C031CD5280330B9002B20FD
:1001A0000530B2001720A40AC9280230B9002B205C
:1001B000A4012408033C031CE62824080420A5000D
:1001C000B6012508B7007C20A40AD9288A110A1292
:1001D000E12C0330AE02031CF7282E308400831379
:1001E00000080319F728F528F528800BF4280800E3
:1001F00083160510831205100230AD00F930AE00F1
:10020000E920AD0BFE288316051402308312AD00E1
:10021000F930AE00E920AD0B0829831605148312CE
:100220000800AE012E08073C031C34298316051074
:10023000831205100330F700F70B1C290310AD0CD7
:100240000318242905102529051483160510633089
:10025000F700F70B29292C2905140330F700F70BB9
:100260002F298312AE0A12290800AD012D08073C80
:10027000031C572983160510831205100330F7005D
:10028000F70B4029831605140D30F700F70B4629AC
:100290000514831205184E2903104F290314AE0CC0
:1002A000C730F700F70B52295529AD0A36292E0819
:1002B000F8000800A401F820CC30AD001121443032
:1002C000AD001121A408031D692935217808A40077
:1002D0006229F820CC30AD001121BE30AD001121D3
:1002E00035217808A50035217808A6002608A80041
:1002F0002508A7002808AE002708AD008E30F700BB
:100300002E08F8002D08F900FA01AE1F8C29F80913
:10031000F909F90A0319F80AF808031D9929790857
:10032000F800F9010830F702F808031D9929F701D0
:10033000A2290310F81BA029F90DF80DF70399293C
:10034000AE1FF8137A08B0007908AF007808AE0045
:100350007708AD003008B4002F08B3002E08B200B3
:100360002D08B100B801B701B6018330B5003108DE
:1003700003197C2ABD00350803197C2ABD02031C21
:10038000C6297F30BD0703187C2ACC298130BD02E5
:10039000031C7C2A03197C2A3D08F700F801F901A7
:1003A000FA01BC013208BB00BB173308BA0034089D
:1003B000B9001930BD003808B9020318EF2901301F
:1003C000BA020318EF29BB020318EF29BC02031875
:1003D000EF29BC0ABB0ABA0A3808B907212A37082C
:1003E000BA0203180A2A0130BB0203180A2ABC0207
:1003F00003180A2ABC0ABB0A3708BA073808B90723
:10040000031C212ABA0A031D212ABB0A031D212A23
:10041000BC0A212A36088038BB020318202A013082
:10042000BC020318202ABC0A36088038BB073708EC
:10043000BA07031CFE29BB0A031DFE29BC0AFE29BC
:100440007A14BD0B242A2F2A0310B90DBA0DBB0D47
:10045000BC0D0310FA0DF90DF80DBE0DDB293E1C85
:10046000372A0310F80CF90CFA0CBE0C3A2AF703E1
:1004700003197C2ABE1B632A0310B90DBA0DBB0DEC
:10048000BC0D3808B90203184F2A0130BA0203180C
:100490004F2ABB0203184F2ABC02031C722A3708DA
:1004A000BA0203185A2A0130BB0203185A2ABC02A6
:1004B000031C722A36088038BB020318632A0130F5
:1004C000BC02031C722AFA0A031D722AF90A031DD0
:1004D000722AF80A031D722AF70A03197C2AF80CFB
:1004E000F90CFA0C3208BD003608BD06BD1F7A2A89
:1004F000F817802AF813802AF701F801F901FA01A8
:100500007A08AC007908AB007808AA007708A9003F
:10051000C830B20017202908F7002A08F8002B0875
:10052000F9002C08FA008A110A12E52C31080C3A5D
:100530000319A12A063A0319A92A023A0319BF2A64
:10054000C42AB6010130B7007C200230B200172067
:10055000C92A0130B2000230B300330BB02AB32AEB
:100560004030B400B42AB40101303202B407340878
:100570008038B500B6013508B7007C20C92AB6011D
:100580001030B7007C20C92A0130B6003108B7000E
:100590007C2008000B08A5008B13831603178C170B
:1005A0000C140000000083120313A51B8B17031803
:1005B000012B03170C087F390313A50003170D083F
:1005C0000313A60003170F080313A7002508B100A3
:1005D0009622260803178D000313270803178F00A0
:1005E00003130B08A8008B13831603178C170C1426
:1005F0000000000083120313A81B8B17A40B012B10
:10060000202B03170C0D0E0D7F390313A5000317C4
:100610000D080313A60003170F080313A7002508EE
:10062000B1009622260803178D000313270803172D
:100630008F008D0A03198F0A03100313A40BCA2A13
:100640008A110A12F72C8318282B3930840083135F
:10065000F701F801F901FA01B901BA01BB01BC01C6
:1006600038083704360435040319662B2030BD00E2
:100670000310B10DB20DB30DB40DB90DBA0DBB0D14
:10068000BC0D38083C02031D4F2B37083B02031DED
:100690004F2B36083A02031D4F2B35083902031C35
:1006A000602B3508B9023608031C360FBA0237082A
:1006B000031C370FBB023808031C380FBC0203149D
:1006C000F70DF80DF90DFA0DBD0B382B3908800028
:1006D000840A3A088000840A3B088000840A3C08A7
:1006E000800008000408A9002808AB000319042CA6
:1006F0002708B4002608B3002508B2002408B1007A
:10070000B801B7012030B6008230B50031080319B6
:10071000F62BB90035080319F62BB9070318972BE8
:100720007F30B902031CF62B0319F62B9B2B81306B
:10073000B9070318F62B3908F700F801F901FA0197
:100740003208BD00BD173308BC003408BB001830A8
:10075000B900BA013B1CC42B3808FA07031CB62B9E
:10076000F90A031DB62BF80A0319BA173708F90757
:10077000031CBD2BF80A0319BA173608B300B317C8
:100780003308F8070318BA17BA0DF80CF90CFA0C6D
:10079000BD0CBC0CBB0C0310B90BA92B0130F70727
:1007A0000318F62BF81BDB2BBD0DFA0DF90DF80D18
:1007B000F7030319F62BBD1FEC2BFA0A031DEC2BD4
:1007C000F90A031DEC2BF80A031DEC2BF80CF90CAD
:1007D000FA0CF70A0319F62B3208BA003608BA06E3
:1007E000BA1FF42BF817FA2BF813FA2BF701F801BC
:1007F000F901FA017A08A7007908A6007808A5008F
:100800007708A400AB0B782B2708B4002608B300A8
:100810002508B2002408B1003108B63CB100FA0145
:100820003208B500B2170310B20CB30CB40CFA0CBA
:10083000F90CF80CF70CB10B132CB51F2A2CF70987
:10084000F809F909FA09F70A0319F80A0319F90A64
:100850000319FA0A7A08A7007908A6007808A50003
:100860007708A400A71F412CA903A916A409A5096C
:10087000A609A709A40A0319A50A0319A60A0319B8
:10088000A70A3B30B0009A30AF00CA30AE00AD01CD
:100890000A30AB0028080319A90A83142430840005
:1008A00083132708B4002608B3002508B2002408E3
:1008B000B1003008B8002F08B7002E08B6002D0888
:1008C000B50023237808F708031D792C280A2B028A
:1008D0000319792C290803197B2C0F392B020319D2
:1008E000732C0318AB2CA91BAB2C291B7B2C2030A1
:1008F000A72C2030A905A91E892CA9122808031DA0
:10090000A9037708A9002D30B10096222908F70025
:10091000A90128082B02031D972C7708A9002E3067
:10092000B10096222908F7002030A90500303030A8
:10093000A91EA72CA9122808031DA9037708A9003E
:100940002D30B10096222908F700A9013030F707B1
:100950007708B100962283103008B4002F08B30046
:100960002E08B2002D08B100B801B701B6010A3057
:10097000B50023237A08B0007908AF007808AE00EC
:100980007708AD00AB0B4D2C8A110A12042D030819
:100990001F398300831603170908C0398900031320
:1009A0001F129F12003003178800831287018801ED
:1009B00089018313FF30831603139500811383127B
:1009C000B9283230B20017205A297A08A3007908D2
:1009D000A2007808A1007708A0000C3003178D0052
:1009E00000308F0003100E300313A400CA2A023017
:1009F00084002308A7002208A6002108A5002008DB
:100A0000A4000130A800722B4330B10096220430BC
:100A1000A400FA30B2001720A40B092DE42C6300C7
:04400E00E22FFF3F5F
:00000001FF
;PIC16F887
;CRC=664D  CREATED="24-feb.-22 15:27"
